{
  "abi": [
    {
      "type": "constructor",
      "inputs": [
        {
          "name": "_bitcoinLightClient",
          "type": "address",
          "internalType": "address"
        }
      ],
      "stateMutability": "nonpayable"
    },
    {
      "type": "function",
      "name": "bitcoinLightClient",
      "inputs": [],
      "outputs": [
        {
          "name": "",
          "type": "address",
          "internalType": "contract IBitcoinLightClient"
        }
      ],
      "stateMutability": "view"
    },
    {
      "type": "function",
      "name": "fullfill",
      "inputs": [
        {
          "name": "_requestId",
          "type": "uint256",
          "internalType": "uint256"
        },
        {
          "name": "_blockNumber",
          "type": "uint256",
          "internalType": "uint256"
        },
        {
          "name": "_wtxId",
          "type": "bytes32",
          "internalType": "bytes32"
        },
        {
          "name": "_proof",
          "type": "bytes",
          "internalType": "bytes"
        },
        {
          "name": "_index",
          "type": "uint256",
          "internalType": "uint256"
        }
      ],
      "outputs": [],
      "stateMutability": "nonpayable"
    },
    {
      "type": "function",
      "name": "generateRequest",
      "inputs": [
        {
          "name": "amount",
          "type": "uint256",
          "internalType": "uint256"
        }
      ],
      "outputs": [],
      "stateMutability": "payable"
    },
    {
      "type": "function",
      "name": "getRequest",
      "inputs": [
        {
          "name": "_id",
          "type": "uint256",
          "internalType": "uint256"
        }
      ],
      "outputs": [
        {
          "name": "req_",
          "type": "tuple",
          "internalType": "struct Request",
          "components": [
            {
              "name": "requestor",
              "type": "address",
              "internalType": "address"
            },
            {
              "name": "amount",
              "type": "uint256",
              "internalType": "uint256"
            },
            {
              "name": "generationTimestamp",
              "type": "uint256",
              "internalType": "uint256"
            },
            {
              "name": "status",
              "type": "uint8",
              "internalType": "enum Status"
            }
          ]
        }
      ],
      "stateMutability": "view"
    },
    {
      "type": "function",
      "name": "lockedFunds",
      "inputs": [
        {
          "name": "",
          "type": "uint256",
          "internalType": "uint256"
        }
      ],
      "outputs": [
        {
          "name": "requestor",
          "type": "address",
          "internalType": "address"
        },
        {
          "name": "amount",
          "type": "uint256",
          "internalType": "uint256"
        },
        {
          "name": "generationTimestamp",
          "type": "uint256",
          "internalType": "uint256"
        },
        {
          "name": "status",
          "type": "uint8",
          "internalType": "enum Status"
        }
      ],
      "stateMutability": "view"
    },
    {
      "type": "function",
      "name": "requests",
      "inputs": [
        {
          "name": "",
          "type": "uint256",
          "internalType": "uint256"
        }
      ],
      "outputs": [
        {
          "name": "requestor",
          "type": "address",
          "internalType": "address"
        },
        {
          "name": "amount",
          "type": "uint256",
          "internalType": "uint256"
        },
        {
          "name": "generationTimestamp",
          "type": "uint256",
          "internalType": "uint256"
        },
        {
          "name": "status",
          "type": "uint8",
          "internalType": "enum Status"
        }
      ],
      "stateMutability": "view"
    },
    {
      "type": "function",
      "name": "revokeRequest",
      "inputs": [
        {
          "name": "_requestId",
          "type": "uint256",
          "internalType": "uint256"
        }
      ],
      "outputs": [],
      "stateMutability": "nonpayable"
    }
  ],
  "bytecode": {
    "object": "0x6080604052348015600e575f5ffd5b50604051610981380380610981833981016040819052602b91604e565b5f80546001600160a01b0319166001600160a01b03929092169190911790556079565b5f60208284031215605d575f5ffd5b81516001600160a01b03811681146072575f5ffd5b9392505050565b6108fb806100865f395ff3fe60806040526004361061006e575f3560e01c8063ddf76ed21161004c578063ddf76ed214610156578063e7d915cf1461018c578063ee73b4d9146101ad578063f850fc84146101c0575f5ffd5b806381d12c5814610072578063c53fff8a146100da578063c58343ef1461012a575b5f5ffd5b34801561007d575f5ffd5b506100c161008c3660046106e6565b600260208190525f918252604090912080546001820154928201546003909201546001600160a01b0390911692919060ff1684565b6040516100d19493929190610731565b60405180910390f35b3480156100e5575f5ffd5b506100c16100f43660046106e6565b600160208190525f918252604090912080549181015460028201546003909201546001600160a01b039093169290919060ff1684565b348015610135575f5ffd5b506101496101443660046106e6565b6101df565b6040516100d19190610765565b348015610161575f5ffd5b505f54610174906001600160a01b031681565b6040516001600160a01b0390911681526020016100d1565b348015610197575f5ffd5b506101ab6101a63660046106e6565b61027d565b005b6101ab6101bb3660046106e6565b6103f8565b3480156101cb575f5ffd5b506101ab6101da3660046107a4565b6104e2565b610206604080516080810182525f8082526020820181905291810182905290606082015290565b5f82815260026020818152604092839020835160808101855281546001600160a01b0316815260018201549281019290925280830154938201939093526003830154909291606084019160ff1690811115610263576102636106fd565b6002811115610274576102746106fd565b90525092915050565b5f610287826101df565b80519091506001600160a01b031633146102de5760405162461bcd60e51b81526020600482015260136024820152722ab71030ba3437b934b9b2b21031b0b63632b960691b60448201526064015b60405180910390fd5b6002606082018181525f8481526020838152604091829020855181546001600160a01b0319166001600160a01b03909116178155908501516001808301919091559185015181850155915160038301805486959293919260ff199091169190849081111561034e5761034e6106fd565b021790555050815160208301516040515f935083926001600160a01b031691908381818185875af1925050503d805f81146103a4576040519150601f19603f3d011682016040523d82523d5f602084013e6103a9565b606091505b5091509150816103f25760405162461bcd60e51b81526020600482015260146024820152734661696c656420746f2073656e642066756e647360601b60448201526064016102d5565b50505050565b80341461043f5760405162461bcd60e51b8152602060048201526015602482015274139bdd08195b9bdd59da08199d5b991cc81cd95b9d605a1b60448201526064016102d5565b60038054905f61044e83610836565b909155505060408051608081018252338152602080820184815242838501908152600160608501818152600380545f90815260029687905297909720865181546001600160a01b0319166001600160a01b0390911617815593518483015591518385015590519482018054949592949293909260ff1916919084908111156104d8576104d86106fd565b0217905550505050565b5f80546040516327fe9a2560e11b81526001600160a01b0390911690634ffd344a9061051a908990899089908990899060040161085a565b602060405180830381865afa158015610535573d5f5f3e3d5ffd5b505050506040513d601f19601f82011682018060405250810190610559919061089f565b9050806105a85760405162461bcd60e51b815260206004820152601860248201527f5472616e73616374696f6e206e6f7420696e636c75646564000000000000000060448201526064016102d5565b6105b287336105bb565b50505050505050565b5f6105c5836101df565b5f6060820181815285825260026020818152604093849020855181546001600160a01b0319166001600160a01b039091161781559085015160018083019190915593850151818301559151600383018054959650869593949193909260ff199091169190849081111561063a5761063a6106fd565b0217905550505060208101516040515f9081906001600160a01b0386169084908381818185875af1925050503d805f8114610690576040519150601f19603f3d011682016040523d82523d5f602084013e610695565b606091505b5091509150816106de5760405162461bcd60e51b81526020600482015260146024820152734661696c656420746f2073656e642066756e647360601b60448201526064016102d5565b505050505050565b5f602082840312156106f6575f5ffd5b5035919050565b634e487b7160e01b5f52602160045260245ffd5b6003811061072d57634e487b7160e01b5f52602160045260245ffd5b9052565b6001600160a01b038516815260208101849052604081018390526080810161075c6060830184610711565b95945050505050565b81516001600160a01b031681526020808301519082015260408083015190820152606080830151608083019161079d90840182610711565b5092915050565b5f5f5f5f5f5f60a087890312156107b9575f5ffd5b863595506020870135945060408701359350606087013567ffffffffffffffff8111156107e4575f5ffd5b8701601f810189136107f4575f5ffd5b803567ffffffffffffffff81111561080a575f5ffd5b89602082840101111561081b575f5ffd5b96999598509396602090940195946080909401359392505050565b5f6001820161085357634e487b7160e01b5f52601160045260245ffd5b5060010190565b85815284602082015260806040820152826080820152828460a08301375f60a084830101525f60a0601f19601f86011683010190508260608301529695505050505050565b5f602082840312156108af575f5ffd5b815180151581146108be575f5ffd5b939250505056fea26469706673582212206eff742160d5bb78a9a297523e0fbfcd6e92cd4d5684b3fec47b2f86d7aa5b0064736f6c634300081c0033",
    "linkReferences": {}
  },
  "methodIdentifiers": {
    "bitcoinLightClient()": "ddf76ed2",
    "fullfill(uint256,uint256,bytes32,bytes,uint256)": "f850fc84",
    "generateRequest(uint256)": "ee73b4d9",
    "getRequest(uint256)": "c58343ef",
    "lockedFunds(uint256)": "c53fff8a",
    "requests(uint256)": "81d12c58",
    "revokeRequest(uint256)": "e7d915cf"
  },
  "id": 4
}